{
	"data": {
		"bytecode": {
			"linkReferences": {},
			"object": "6080604052348015600e575f5ffd5b50335f5f6101000a81548173ffffffffffffffffffffffffffffffffffffffff021916908373ffffffffffffffffffffffffffffffffffffffff1602179055506115d38061005b5f395ff3fe60806040526004361061009b575f3560e01c80638da5cb5b116100635780638da5cb5b1461014557806390d1341e1461016f5780639d76ea5814610185578063e86790eb146101af578063ff332ab7146101d9578063ffdeb903146102085761009b565b806305b1137b1461009f5780632d296bf1146100bb5780635ed9ebfc146100d75780637ad3def21461010157806387c1ed1214610129575b5f5ffd5b6100b960048036038101906100b49190610d7b565b610230565b005b6100d560048036038101906100d09190610db9565b610320565b005b3480156100e2575f5ffd5b506100eb610562565b6040516100f89190610df3565b60405180910390f35b34801561010c575f5ffd5b5061012760048036038101906101229190610e47565b610568565b005b610143600480360381019061013e9190610db9565b610639565b005b348015610150575f5ffd5b50610159610748565b6040516101669190610e81565b60405180910390f35b34801561017a575f5ffd5b5061018361076c565b005b348015610190575f5ffd5b506101996109ba565b6040516101a69190610e81565b60405180910390f35b3480156101ba575f5ffd5b506101c36109df565b6040516101d09190610df3565b60405180910390f35b3480156101e4575f5ffd5b506101ed6109e5565b6040516101ff96959493929190610f0a565b60405180910390f35b348015610213575f5ffd5b5061022e60048036038101906102299190610db9565b610c10565b005b80341015610273576040517f08c379a000000000000000000000000000000000000000000000000000000000815260040161026a90610fc1565b60405180910390fd5b5f8273ffffffffffffffffffffffffffffffffffffffff16826040516102989061100c565b5f6040518083038185875af1925050503d805f81146102d2576040519150601f19603f3d011682016040523d82523d5f602084013e6102d7565b606091505b505090508061031b576040517f08c379a00000000000000000000000000000000000000000000000000000000081526004016103129061106a565b60405180910390fd5b505050565b61032c81600254610ca8565b341461036d576040517f08c379a0000000000000000000000000000000000000000000000000000000008152600401610364906110f8565b60405180910390fd5b5f60015f9054906101000a900473ffffffffffffffffffffffffffffffffffffffff1690508073ffffffffffffffffffffffffffffffffffffffff166370a08231306040518263ffffffff1660e01b81526004016103cb9190610e81565b602060405180830381865afa1580156103e6573d5f5f3e3d5ffd5b505050506040513d601f19601f8201168201806040525081019061040a919061112a565b82111561044c576040517f08c379a00000000000000000000000000000000000000000000000000000000081526004016104439061119f565b60405180910390fd5b8073ffffffffffffffffffffffffffffffffffffffff1663a9059cbb33670de0b6b3a76400008561047d91906111ea565b6040518363ffffffff1660e01b815260040161049a92919061122b565b6020604051808303815f875af11580156104b6573d5f5f3e3d5ffd5b505050506040513d601f19601f820116820180604052508101906104da9190611287565b6104e2575f5ffd5b5f5f9054906101000a900473ffffffffffffffffffffffffffffffffffffffff1673ffffffffffffffffffffffffffffffffffffffff166108fc3490811502906040515f60405180830381858888f19350505050158015610545573d5f5f3e3d5ffd5b508160035f82825461055791906112b2565b925050819055505050565b60035481565b5f5f9054906101000a900473ffffffffffffffffffffffffffffffffffffffff1673ffffffffffffffffffffffffffffffffffffffff163373ffffffffffffffffffffffffffffffffffffffff16146105f6576040517f08c379a00000000000000000000000000000000000000000000000000000000081526004016105ed90611355565b60405180910390fd5b8060015f6101000a81548173ffffffffffffffffffffffffffffffffffffffff021916908373ffffffffffffffffffffffffffffffffffffffff16021790555050565b8034101561067c576040517f08c379a000000000000000000000000000000000000000000000000000000000815260040161067390610fc1565b60405180910390fd5b5f5f5f9054906101000a900473ffffffffffffffffffffffffffffffffffffffff1673ffffffffffffffffffffffffffffffffffffffff16826040516106c19061100c565b5f6040518083038185875af1925050503d805f81146106fb576040519150601f19603f3d011682016040523d82523d5f602084013e610700565b606091505b5050905080610744576040517f08c379a000000000000000000000000000000000000000000000000000000000815260040161073b9061106a565b60405180910390fd5b5050565b5f5f9054906101000a900473ffffffffffffffffffffffffffffffffffffffff1681565b5f5f9054906101000a900473ffffffffffffffffffffffffffffffffffffffff1673ffffffffffffffffffffffffffffffffffffffff163373ffffffffffffffffffffffffffffffffffffffff16146107fa576040517f08c379a00000000000000000000000000000000000000000000000000000000081526004016107f190611355565b60405180910390fd5b5f60015f9054906101000a900473ffffffffffffffffffffffffffffffffffffffff1690505f8173ffffffffffffffffffffffffffffffffffffffff166370a08231306040518263ffffffff1660e01b81526004016108599190610e81565b602060405180830381865afa158015610874573d5f5f3e3d5ffd5b505050506040513d601f19601f82011682018060405250810190610898919061112a565b90505f81116108dc576040517f08c379a00000000000000000000000000000000000000000000000000000000081526004016108d3906113bd565b60405180910390fd5b8173ffffffffffffffffffffffffffffffffffffffff1663a9059cbb5f5f9054906101000a900473ffffffffffffffffffffffffffffffffffffffff16836040518363ffffffff1660e01b815260040161093792919061122b565b6020604051808303815f875af1158015610953573d5f5f3e3d5ffd5b505050506040513d601f19601f820116820180604052508101906109779190611287565b6109b6576040517f08c379a00000000000000000000000000000000000000000000000000000000081526004016109ad9061106a565b60405180910390fd5b5050565b60015f9054906101000a900473ffffffffffffffffffffffffffffffffffffffff1681565b60025481565b6060805f5f5f5f5f60015f9054906101000a900473ffffffffffffffffffffffffffffffffffffffff1690508073ffffffffffffffffffffffffffffffffffffffff166306fdde036040518163ffffffff1660e01b81526004015f60405180830381865afa158015610a59573d5f5f3e3d5ffd5b505050506040513d5f823e3d601f19601f82011682018060405250810190610a8191906114f9565b8173ffffffffffffffffffffffffffffffffffffffff166395d89b416040518163ffffffff1660e01b81526004015f60405180830381865afa158015610ac9573d5f5f3e3d5ffd5b505050506040513d5f823e3d601f19601f82011682018060405250810190610af191906114f9565b8273ffffffffffffffffffffffffffffffffffffffff166370a08231306040518263ffffffff1660e01b8152600401610b2a9190610e81565b602060405180830381865afa158015610b45573d5f5f3e3d5ffd5b505050506040513d601f19601f82011682018060405250810190610b69919061112a565b8373ffffffffffffffffffffffffffffffffffffffff166318160ddd6040518163ffffffff1660e01b8152600401602060405180830381865afa158015610bb2573d5f5f3e3d5ffd5b505050506040513d601f19601f82011682018060405250810190610bd6919061112a565b60025460015f9054906101000a900473ffffffffffffffffffffffffffffffffffffffff1696509650965096509650965050909192939495565b5f5f9054906101000a900473ffffffffffffffffffffffffffffffffffffffff1673ffffffffffffffffffffffffffffffffffffffff163373ffffffffffffffffffffffffffffffffffffffff1614610c9e576040517f08c379a0000000000000000000000000000000000000000000000000000000008152600401610c9590611355565b60405180910390fd5b8060028190555050565b5f5f821480610ccf575082828385610cc091906111ea565b925082610ccd919061156d565b145b610cd7575f5ffd5b92915050565b5f604051905090565b5f5ffd5b5f5ffd5b5f73ffffffffffffffffffffffffffffffffffffffff82169050919050565b5f610d1782610cee565b9050919050565b610d2781610d0d565b8114610d31575f5ffd5b50565b5f81359050610d4281610d1e565b92915050565b5f819050919050565b610d5a81610d48565b8114610d64575f5ffd5b50565b5f81359050610d7581610d51565b92915050565b5f5f60408385031215610d9157610d90610ce6565b5b5f610d9e85828601610d34565b9250506020610daf85828601610d67565b9150509250929050565b5f60208284031215610dce57610dcd610ce6565b5b5f610ddb84828501610d67565b91505092915050565b610ded81610d48565b82525050565b5f602082019050610e065f830184610de4565b92915050565b5f610e1682610cee565b9050919050565b610e2681610e0c565b8114610e30575f5ffd5b50565b5f81359050610e4181610e1d565b92915050565b5f60208284031215610e5c57610e5b610ce6565b5b5f610e6984828501610e33565b91505092915050565b610e7b81610e0c565b82525050565b5f602082019050610e945f830184610e72565b92915050565b5f81519050919050565b5f82825260208201905092915050565b8281835e5f83830152505050565b5f601f19601f8301169050919050565b5f610edc82610e9a565b610ee68185610ea4565b9350610ef6818560208601610eb4565b610eff81610ec2565b840191505092915050565b5f60c0820190508181035f830152610f228189610ed2565b90508181036020830152610f368188610ed2565b9050610f456040830187610de4565b610f526060830186610de4565b610f5f6080830185610de4565b610f6c60a0830184610e72565b979650505050505050565b7f496e73756666696369656e742066756e64732073656e740000000000000000005f82015250565b5f610fab601783610ea4565b9150610fb682610f77565b602082019050919050565b5f6020820190508181035f830152610fd881610f9f565b9050919050565b5f81905092915050565b50565b5f610ff75f83610fdf565b915061100282610fe9565b5f82019050919050565b5f61101682610fec565b9150819050919050565b7f5472616e73666572206661696c656400000000000000000000000000000000005f82015250565b5f611054600f83610ea4565b915061105f82611020565b602082019050919050565b5f6020820190508181035f83015261108181611048565b9050919050565b7f45746865722070726f766964657220666f722074686520746f6b656e207075725f8201527f6368617365000000000000000000000000000000000000000000000000000000602082015250565b5f6110e2602583610ea4565b91506110ed82611088565b604082019050919050565b5f6020820190508181035f83015261110f816110d6565b9050919050565b5f8151905061112481610d51565b92915050565b5f6020828403121561113f5761113e610ce6565b5b5f61114c84828501611116565b91505092915050565b7f4e6f7420656e6f75676820746f6b656e206c65667420666f722073616c6500005f82015250565b5f611189601e83610ea4565b915061119482611155565b602082019050919050565b5f6020820190508181035f8301526111b68161117d565b9050919050565b7f4e487b71000000000000000000000000000000000000000000000000000000005f52601160045260245ffd5b5f6111f482610d48565b91506111ff83610d48565b925082820261120d81610d48565b91508282048414831517611224576112236111bd565b5b5092915050565b5f60408201905061123e5f830185610e72565b61124b6020830184610de4565b9392505050565b5f8115159050919050565b61126681611252565b8114611270575f5ffd5b50565b5f815190506112818161125d565b92915050565b5f6020828403121561129c5761129b610ce6565b5b5f6112a984828501611273565b91505092915050565b5f6112bc82610d48565b91506112c783610d48565b92508282019050808211156112df576112de6111bd565b5b92915050565b7f4f6e6c7920636f6e7472616374206f776e65722063616e20706572666f726d205f8201527f7468697320616374696f6e000000000000000000000000000000000000000000602082015250565b5f61133f602b83610ea4565b915061134a826112e5565b604082019050919050565b5f6020820190508181035f83015261136c81611333565b9050919050565b7f4e6f20746f6b656e7320746f20776974686472617700000000000000000000005f82015250565b5f6113a7601583610ea4565b91506113b282611373565b602082019050919050565b5f6020820190508181035f8301526113d48161139b565b9050919050565b5f5ffd5b5f5ffd5b7f4e487b71000000000000000000000000000000000000000000000000000000005f52604160045260245ffd5b61141982610ec2565b810181811067ffffffffffffffff82111715611438576114376113e3565b5b80604052505050565b5f61144a610cdd565b90506114568282611410565b919050565b5f67ffffffffffffffff821115611475576114746113e3565b5b61147e82610ec2565b9050602081019050919050565b5f61149d6114988461145b565b611441565b9050828152602081018484840111156114b9576114b86113df565b5b6114c4848285610eb4565b509392505050565b5f82601f8301126114e0576114df6113db565b5b81516114f084826020860161148b565b91505092915050565b5f6020828403121561150e5761150d610ce6565b5b5f82015167ffffffffffffffff81111561152b5761152a610cea565b5b611537848285016114cc565b91505092915050565b7f4e487b71000000000000000000000000000000000000000000000000000000005f52601260045260245ffd5b5f61157782610d48565b915061158283610d48565b92508261159257611591611540565b5b82820490509291505056fea26469706673582212203a7bb520787b96a3d8eb3714373ae170bb4ef6b6b45dd99de8fabd62bfea937964736f6c634300081c0033",
			"opcodes": "PUSH1 0x80 PUSH1 0x40 MSTORE CALLVALUE DUP1 ISZERO PUSH1 0xE JUMPI PUSH0 PUSH0 REVERT JUMPDEST POP CALLER PUSH0 PUSH0 PUSH2 0x100 EXP DUP2 SLOAD DUP2 PUSH20 0xFFFFFFFFFFFFFFFFFFFFFFFFFFFFFFFFFFFFFFFF MUL NOT AND SWAP1 DUP4 PUSH20 0xFFFFFFFFFFFFFFFFFFFFFFFFFFFFFFFFFFFFFFFF AND MUL OR SWAP1 SSTORE POP PUSH2 0x15D3 DUP1 PUSH2 0x5B PUSH0 CODECOPY PUSH0 RETURN INVALID PUSH1 0x80 PUSH1 0x40 MSTORE PUSH1 0x4 CALLDATASIZE LT PUSH2 0x9B JUMPI PUSH0 CALLDATALOAD PUSH1 0xE0 SHR DUP1 PUSH4 0x8DA5CB5B GT PUSH2 0x63 JUMPI DUP1 PUSH4 0x8DA5CB5B EQ PUSH2 0x145 JUMPI DUP1 PUSH4 0x90D1341E EQ PUSH2 0x16F JUMPI DUP1 PUSH4 0x9D76EA58 EQ PUSH2 0x185 JUMPI DUP1 PUSH4 0xE86790EB EQ PUSH2 0x1AF JUMPI DUP1 PUSH4 0xFF332AB7 EQ PUSH2 0x1D9 JUMPI DUP1 PUSH4 0xFFDEB903 EQ PUSH2 0x208 JUMPI PUSH2 0x9B JUMP JUMPDEST DUP1 PUSH4 0x5B1137B EQ PUSH2 0x9F JUMPI DUP1 PUSH4 0x2D296BF1 EQ PUSH2 0xBB JUMPI DUP1 PUSH4 0x5ED9EBFC EQ PUSH2 0xD7 JUMPI DUP1 PUSH4 0x7AD3DEF2 EQ PUSH2 0x101 JUMPI DUP1 PUSH4 0x87C1ED12 EQ PUSH2 0x129 JUMPI JUMPDEST PUSH0 PUSH0 REVERT JUMPDEST PUSH2 0xB9 PUSH1 0x4 DUP1 CALLDATASIZE SUB DUP2 ADD SWAP1 PUSH2 0xB4 SWAP2 SWAP1 PUSH2 0xD7B JUMP JUMPDEST PUSH2 0x230 JUMP JUMPDEST STOP JUMPDEST PUSH2 0xD5 PUSH1 0x4 DUP1 CALLDATASIZE SUB DUP2 ADD SWAP1 PUSH2 0xD0 SWAP2 SWAP1 PUSH2 0xDB9 JUMP JUMPDEST PUSH2 0x320 JUMP JUMPDEST STOP JUMPDEST CALLVALUE DUP1 ISZERO PUSH2 0xE2 JUMPI PUSH0 PUSH0 REVERT JUMPDEST POP PUSH2 0xEB PUSH2 0x562 JUMP JUMPDEST PUSH1 0x40 MLOAD PUSH2 0xF8 SWAP2 SWAP1 PUSH2 0xDF3 JUMP JUMPDEST PUSH1 0x40 MLOAD DUP1 SWAP2 SUB SWAP1 RETURN JUMPDEST CALLVALUE DUP1 ISZERO PUSH2 0x10C JUMPI PUSH0 PUSH0 REVERT JUMPDEST POP PUSH2 0x127 PUSH1 0x4 DUP1 CALLDATASIZE SUB DUP2 ADD SWAP1 PUSH2 0x122 SWAP2 SWAP1 PUSH2 0xE47 JUMP JUMPDEST PUSH2 0x568 JUMP JUMPDEST STOP JUMPDEST PUSH2 0x143 PUSH1 0x4 DUP1 CALLDATASIZE SUB DUP2 ADD SWAP1 PUSH2 0x13E SWAP2 SWAP1 PUSH2 0xDB9 JUMP JUMPDEST PUSH2 0x639 JUMP JUMPDEST STOP JUMPDEST CALLVALUE DUP1 ISZERO PUSH2 0x150 JUMPI PUSH0 PUSH0 REVERT JUMPDEST POP PUSH2 0x159 PUSH2 0x748 JUMP JUMPDEST PUSH1 0x40 MLOAD PUSH2 0x166 SWAP2 SWAP1 PUSH2 0xE81 JUMP JUMPDEST PUSH1 0x40 MLOAD DUP1 SWAP2 SUB SWAP1 RETURN JUMPDEST CALLVALUE DUP1 ISZERO PUSH2 0x17A JUMPI PUSH0 PUSH0 REVERT JUMPDEST POP PUSH2 0x183 PUSH2 0x76C JUMP JUMPDEST STOP JUMPDEST CALLVALUE DUP1 ISZERO PUSH2 0x190 JUMPI PUSH0 PUSH0 REVERT JUMPDEST POP PUSH2 0x199 PUSH2 0x9BA JUMP JUMPDEST PUSH1 0x40 MLOAD PUSH2 0x1A6 SWAP2 SWAP1 PUSH2 0xE81 JUMP JUMPDEST PUSH1 0x40 MLOAD DUP1 SWAP2 SUB SWAP1 RETURN JUMPDEST CALLVALUE DUP1 ISZERO PUSH2 0x1BA JUMPI PUSH0 PUSH0 REVERT JUMPDEST POP PUSH2 0x1C3 PUSH2 0x9DF JUMP JUMPDEST PUSH1 0x40 MLOAD PUSH2 0x1D0 SWAP2 SWAP1 PUSH2 0xDF3 JUMP JUMPDEST PUSH1 0x40 MLOAD DUP1 SWAP2 SUB SWAP1 RETURN JUMPDEST CALLVALUE DUP1 ISZERO PUSH2 0x1E4 JUMPI PUSH0 PUSH0 REVERT JUMPDEST POP PUSH2 0x1ED PUSH2 0x9E5 JUMP JUMPDEST PUSH1 0x40 MLOAD PUSH2 0x1FF SWAP7 SWAP6 SWAP5 SWAP4 SWAP3 SWAP2 SWAP1 PUSH2 0xF0A JUMP JUMPDEST PUSH1 0x40 MLOAD DUP1 SWAP2 SUB SWAP1 RETURN JUMPDEST CALLVALUE DUP1 ISZERO PUSH2 0x213 JUMPI PUSH0 PUSH0 REVERT JUMPDEST POP PUSH2 0x22E PUSH1 0x4 DUP1 CALLDATASIZE SUB DUP2 ADD SWAP1 PUSH2 0x229 SWAP2 SWAP1 PUSH2 0xDB9 JUMP JUMPDEST PUSH2 0xC10 JUMP JUMPDEST STOP JUMPDEST DUP1 CALLVALUE LT ISZERO PUSH2 0x273 JUMPI PUSH1 0x40 MLOAD PUSH32 0x8C379A000000000000000000000000000000000000000000000000000000000 DUP2 MSTORE PUSH1 0x4 ADD PUSH2 0x26A SWAP1 PUSH2 0xFC1 JUMP JUMPDEST PUSH1 0x40 MLOAD DUP1 SWAP2 SUB SWAP1 REVERT JUMPDEST PUSH0 DUP3 PUSH20 0xFFFFFFFFFFFFFFFFFFFFFFFFFFFFFFFFFFFFFFFF AND DUP3 PUSH1 0x40 MLOAD PUSH2 0x298 SWAP1 PUSH2 0x100C JUMP JUMPDEST PUSH0 PUSH1 0x40 MLOAD DUP1 DUP4 SUB DUP2 DUP6 DUP8 GAS CALL SWAP3 POP POP POP RETURNDATASIZE DUP1 PUSH0 DUP2 EQ PUSH2 0x2D2 JUMPI PUSH1 0x40 MLOAD SWAP2 POP PUSH1 0x1F NOT PUSH1 0x3F RETURNDATASIZE ADD AND DUP3 ADD PUSH1 0x40 MSTORE RETURNDATASIZE DUP3 MSTORE RETURNDATASIZE PUSH0 PUSH1 0x20 DUP5 ADD RETURNDATACOPY PUSH2 0x2D7 JUMP JUMPDEST PUSH1 0x60 SWAP2 POP JUMPDEST POP POP SWAP1 POP DUP1 PUSH2 0x31B JUMPI PUSH1 0x40 MLOAD PUSH32 0x8C379A000000000000000000000000000000000000000000000000000000000 DUP2 MSTORE PUSH1 0x4 ADD PUSH2 0x312 SWAP1 PUSH2 0x106A JUMP JUMPDEST PUSH1 0x40 MLOAD DUP1 SWAP2 SUB SWAP1 REVERT JUMPDEST POP POP POP JUMP JUMPDEST PUSH2 0x32C DUP2 PUSH1 0x2 SLOAD PUSH2 0xCA8 JUMP JUMPDEST CALLVALUE EQ PUSH2 0x36D JUMPI PUSH1 0x40 MLOAD PUSH32 0x8C379A000000000000000000000000000000000000000000000000000000000 DUP2 MSTORE PUSH1 0x4 ADD PUSH2 0x364 SWAP1 PUSH2 0x10F8 JUMP JUMPDEST PUSH1 0x40 MLOAD DUP1 SWAP2 SUB SWAP1 REVERT JUMPDEST PUSH0 PUSH1 0x1 PUSH0 SWAP1 SLOAD SWAP1 PUSH2 0x100 EXP SWAP1 DIV PUSH20 0xFFFFFFFFFFFFFFFFFFFFFFFFFFFFFFFFFFFFFFFF AND SWAP1 POP DUP1 PUSH20 0xFFFFFFFFFFFFFFFFFFFFFFFFFFFFFFFFFFFFFFFF AND PUSH4 0x70A08231 ADDRESS PUSH1 0x40 MLOAD DUP3 PUSH4 0xFFFFFFFF AND PUSH1 0xE0 SHL DUP2 MSTORE PUSH1 0x4 ADD PUSH2 0x3CB SWAP2 SWAP1 PUSH2 0xE81 JUMP JUMPDEST PUSH1 0x20 PUSH1 0x40 MLOAD DUP1 DUP4 SUB DUP2 DUP7 GAS STATICCALL ISZERO DUP1 ISZERO PUSH2 0x3E6 JUMPI RETURNDATASIZE PUSH0 PUSH0 RETURNDATACOPY RETURNDATASIZE PUSH0 REVERT JUMPDEST POP POP POP POP PUSH1 0x40 MLOAD RETURNDATASIZE PUSH1 0x1F NOT PUSH1 0x1F DUP3 ADD AND DUP3 ADD DUP1 PUSH1 0x40 MSTORE POP DUP2 ADD SWAP1 PUSH2 0x40A SWAP2 SWAP1 PUSH2 0x112A JUMP JUMPDEST DUP3 GT ISZERO PUSH2 0x44C JUMPI PUSH1 0x40 MLOAD PUSH32 0x8C379A000000000000000000000000000000000000000000000000000000000 DUP2 MSTORE PUSH1 0x4 ADD PUSH2 0x443 SWAP1 PUSH2 0x119F JUMP JUMPDEST PUSH1 0x40 MLOAD DUP1 SWAP2 SUB SWAP1 REVERT JUMPDEST DUP1 PUSH20 0xFFFFFFFFFFFFFFFFFFFFFFFFFFFFFFFFFFFFFFFF AND PUSH4 0xA9059CBB CALLER PUSH8 0xDE0B6B3A7640000 DUP6 PUSH2 0x47D SWAP2 SWAP1 PUSH2 0x11EA JUMP JUMPDEST PUSH1 0x40 MLOAD DUP4 PUSH4 0xFFFFFFFF AND PUSH1 0xE0 SHL DUP2 MSTORE PUSH1 0x4 ADD PUSH2 0x49A SWAP3 SWAP2 SWAP1 PUSH2 0x122B JUMP JUMPDEST PUSH1 0x20 PUSH1 0x40 MLOAD DUP1 DUP4 SUB DUP2 PUSH0 DUP8 GAS CALL ISZERO DUP1 ISZERO PUSH2 0x4B6 JUMPI RETURNDATASIZE PUSH0 PUSH0 RETURNDATACOPY RETURNDATASIZE PUSH0 REVERT JUMPDEST POP POP POP POP PUSH1 0x40 MLOAD RETURNDATASIZE PUSH1 0x1F NOT PUSH1 0x1F DUP3 ADD AND DUP3 ADD DUP1 PUSH1 0x40 MSTORE POP DUP2 ADD SWAP1 PUSH2 0x4DA SWAP2 SWAP1 PUSH2 0x1287 JUMP JUMPDEST PUSH2 0x4E2 JUMPI PUSH0 PUSH0 REVERT JUMPDEST PUSH0 PUSH0 SWAP1 SLOAD SWAP1 PUSH2 0x100 EXP SWAP1 DIV PUSH20 0xFFFFFFFFFFFFFFFFFFFFFFFFFFFFFFFFFFFFFFFF AND PUSH20 0xFFFFFFFFFFFFFFFFFFFFFFFFFFFFFFFFFFFFFFFF AND PUSH2 0x8FC CALLVALUE SWAP1 DUP2 ISZERO MUL SWAP1 PUSH1 0x40 MLOAD PUSH0 PUSH1 0x40 MLOAD DUP1 DUP4 SUB DUP2 DUP6 DUP9 DUP9 CALL SWAP4 POP POP POP POP ISZERO DUP1 ISZERO PUSH2 0x545 JUMPI RETURNDATASIZE PUSH0 PUSH0 RETURNDATACOPY RETURNDATASIZE PUSH0 REVERT JUMPDEST POP DUP2 PUSH1 0x3 PUSH0 DUP3 DUP3 SLOAD PUSH2 0x557 SWAP2 SWAP1 PUSH2 0x12B2 JUMP JUMPDEST SWAP3 POP POP DUP2 SWAP1 SSTORE POP POP POP JUMP JUMPDEST PUSH1 0x3 SLOAD DUP2 JUMP JUMPDEST PUSH0 PUSH0 SWAP1 SLOAD SWAP1 PUSH2 0x100 EXP SWAP1 DIV PUSH20 0xFFFFFFFFFFFFFFFFFFFFFFFFFFFFFFFFFFFFFFFF AND PUSH20 0xFFFFFFFFFFFFFFFFFFFFFFFFFFFFFFFFFFFFFFFF AND CALLER PUSH20 0xFFFFFFFFFFFFFFFFFFFFFFFFFFFFFFFFFFFFFFFF AND EQ PUSH2 0x5F6 JUMPI PUSH1 0x40 MLOAD PUSH32 0x8C379A000000000000000000000000000000000000000000000000000000000 DUP2 MSTORE PUSH1 0x4 ADD PUSH2 0x5ED SWAP1 PUSH2 0x1355 JUMP JUMPDEST PUSH1 0x40 MLOAD DUP1 SWAP2 SUB SWAP1 REVERT JUMPDEST DUP1 PUSH1 0x1 PUSH0 PUSH2 0x100 EXP DUP2 SLOAD DUP2 PUSH20 0xFFFFFFFFFFFFFFFFFFFFFFFFFFFFFFFFFFFFFFFF MUL NOT AND SWAP1 DUP4 PUSH20 0xFFFFFFFFFFFFFFFFFFFFFFFFFFFFFFFFFFFFFFFF AND MUL OR SWAP1 SSTORE POP POP JUMP JUMPDEST DUP1 CALLVALUE LT ISZERO PUSH2 0x67C JUMPI PUSH1 0x40 MLOAD PUSH32 0x8C379A000000000000000000000000000000000000000000000000000000000 DUP2 MSTORE PUSH1 0x4 ADD PUSH2 0x673 SWAP1 PUSH2 0xFC1 JUMP JUMPDEST PUSH1 0x40 MLOAD DUP1 SWAP2 SUB SWAP1 REVERT JUMPDEST PUSH0 PUSH0 PUSH0 SWAP1 SLOAD SWAP1 PUSH2 0x100 EXP SWAP1 DIV PUSH20 0xFFFFFFFFFFFFFFFFFFFFFFFFFFFFFFFFFFFFFFFF AND PUSH20 0xFFFFFFFFFFFFFFFFFFFFFFFFFFFFFFFFFFFFFFFF AND DUP3 PUSH1 0x40 MLOAD PUSH2 0x6C1 SWAP1 PUSH2 0x100C JUMP JUMPDEST PUSH0 PUSH1 0x40 MLOAD DUP1 DUP4 SUB DUP2 DUP6 DUP8 GAS CALL SWAP3 POP POP POP RETURNDATASIZE DUP1 PUSH0 DUP2 EQ PUSH2 0x6FB JUMPI PUSH1 0x40 MLOAD SWAP2 POP PUSH1 0x1F NOT PUSH1 0x3F RETURNDATASIZE ADD AND DUP3 ADD PUSH1 0x40 MSTORE RETURNDATASIZE DUP3 MSTORE RETURNDATASIZE PUSH0 PUSH1 0x20 DUP5 ADD RETURNDATACOPY PUSH2 0x700 JUMP JUMPDEST PUSH1 0x60 SWAP2 POP JUMPDEST POP POP SWAP1 POP DUP1 PUSH2 0x744 JUMPI PUSH1 0x40 MLOAD PUSH32 0x8C379A000000000000000000000000000000000000000000000000000000000 DUP2 MSTORE PUSH1 0x4 ADD PUSH2 0x73B SWAP1 PUSH2 0x106A JUMP JUMPDEST PUSH1 0x40 MLOAD DUP1 SWAP2 SUB SWAP1 REVERT JUMPDEST POP POP JUMP JUMPDEST PUSH0 PUSH0 SWAP1 SLOAD SWAP1 PUSH2 0x100 EXP SWAP1 DIV PUSH20 0xFFFFFFFFFFFFFFFFFFFFFFFFFFFFFFFFFFFFFFFF AND DUP2 JUMP JUMPDEST PUSH0 PUSH0 SWAP1 SLOAD SWAP1 PUSH2 0x100 EXP SWAP1 DIV PUSH20 0xFFFFFFFFFFFFFFFFFFFFFFFFFFFFFFFFFFFFFFFF AND PUSH20 0xFFFFFFFFFFFFFFFFFFFFFFFFFFFFFFFFFFFFFFFF AND CALLER PUSH20 0xFFFFFFFFFFFFFFFFFFFFFFFFFFFFFFFFFFFFFFFF AND EQ PUSH2 0x7FA JUMPI PUSH1 0x40 MLOAD PUSH32 0x8C379A000000000000000000000000000000000000000000000000000000000 DUP2 MSTORE PUSH1 0x4 ADD PUSH2 0x7F1 SWAP1 PUSH2 0x1355 JUMP JUMPDEST PUSH1 0x40 MLOAD DUP1 SWAP2 SUB SWAP1 REVERT JUMPDEST PUSH0 PUSH1 0x1 PUSH0 SWAP1 SLOAD SWAP1 PUSH2 0x100 EXP SWAP1 DIV PUSH20 0xFFFFFFFFFFFFFFFFFFFFFFFFFFFFFFFFFFFFFFFF AND SWAP1 POP PUSH0 DUP2 PUSH20 0xFFFFFFFFFFFFFFFFFFFFFFFFFFFFFFFFFFFFFFFF AND PUSH4 0x70A08231 ADDRESS PUSH1 0x40 MLOAD DUP3 PUSH4 0xFFFFFFFF AND PUSH1 0xE0 SHL DUP2 MSTORE PUSH1 0x4 ADD PUSH2 0x859 SWAP2 SWAP1 PUSH2 0xE81 JUMP JUMPDEST PUSH1 0x20 PUSH1 0x40 MLOAD DUP1 DUP4 SUB DUP2 DUP7 GAS STATICCALL ISZERO DUP1 ISZERO PUSH2 0x874 JUMPI RETURNDATASIZE PUSH0 PUSH0 RETURNDATACOPY RETURNDATASIZE PUSH0 REVERT JUMPDEST POP POP POP POP PUSH1 0x40 MLOAD RETURNDATASIZE PUSH1 0x1F NOT PUSH1 0x1F DUP3 ADD AND DUP3 ADD DUP1 PUSH1 0x40 MSTORE POP DUP2 ADD SWAP1 PUSH2 0x898 SWAP2 SWAP1 PUSH2 0x112A JUMP JUMPDEST SWAP1 POP PUSH0 DUP2 GT PUSH2 0x8DC JUMPI PUSH1 0x40 MLOAD PUSH32 0x8C379A000000000000000000000000000000000000000000000000000000000 DUP2 MSTORE PUSH1 0x4 ADD PUSH2 0x8D3 SWAP1 PUSH2 0x13BD JUMP JUMPDEST PUSH1 0x40 MLOAD DUP1 SWAP2 SUB SWAP1 REVERT JUMPDEST DUP2 PUSH20 0xFFFFFFFFFFFFFFFFFFFFFFFFFFFFFFFFFFFFFFFF AND PUSH4 0xA9059CBB PUSH0 PUSH0 SWAP1 SLOAD SWAP1 PUSH2 0x100 EXP SWAP1 DIV PUSH20 0xFFFFFFFFFFFFFFFFFFFFFFFFFFFFFFFFFFFFFFFF AND DUP4 PUSH1 0x40 MLOAD DUP4 PUSH4 0xFFFFFFFF AND PUSH1 0xE0 SHL DUP2 MSTORE PUSH1 0x4 ADD PUSH2 0x937 SWAP3 SWAP2 SWAP1 PUSH2 0x122B JUMP JUMPDEST PUSH1 0x20 PUSH1 0x40 MLOAD DUP1 DUP4 SUB DUP2 PUSH0 DUP8 GAS CALL ISZERO DUP1 ISZERO PUSH2 0x953 JUMPI RETURNDATASIZE PUSH0 PUSH0 RETURNDATACOPY RETURNDATASIZE PUSH0 REVERT JUMPDEST POP POP POP POP PUSH1 0x40 MLOAD RETURNDATASIZE PUSH1 0x1F NOT PUSH1 0x1F DUP3 ADD AND DUP3 ADD DUP1 PUSH1 0x40 MSTORE POP DUP2 ADD SWAP1 PUSH2 0x977 SWAP2 SWAP1 PUSH2 0x1287 JUMP JUMPDEST PUSH2 0x9B6 JUMPI PUSH1 0x40 MLOAD PUSH32 0x8C379A000000000000000000000000000000000000000000000000000000000 DUP2 MSTORE PUSH1 0x4 ADD PUSH2 0x9AD SWAP1 PUSH2 0x106A JUMP JUMPDEST PUSH1 0x40 MLOAD DUP1 SWAP2 SUB SWAP1 REVERT JUMPDEST POP POP JUMP JUMPDEST PUSH1 0x1 PUSH0 SWAP1 SLOAD SWAP1 PUSH2 0x100 EXP SWAP1 DIV PUSH20 0xFFFFFFFFFFFFFFFFFFFFFFFFFFFFFFFFFFFFFFFF AND DUP2 JUMP JUMPDEST PUSH1 0x2 SLOAD DUP2 JUMP JUMPDEST PUSH1 0x60 DUP1 PUSH0 PUSH0 PUSH0 PUSH0 PUSH0 PUSH1 0x1 PUSH0 SWAP1 SLOAD SWAP1 PUSH2 0x100 EXP SWAP1 DIV PUSH20 0xFFFFFFFFFFFFFFFFFFFFFFFFFFFFFFFFFFFFFFFF AND SWAP1 POP DUP1 PUSH20 0xFFFFFFFFFFFFFFFFFFFFFFFFFFFFFFFFFFFFFFFF AND PUSH4 0x6FDDE03 PUSH1 0x40 MLOAD DUP2 PUSH4 0xFFFFFFFF AND PUSH1 0xE0 SHL DUP2 MSTORE PUSH1 0x4 ADD PUSH0 PUSH1 0x40 MLOAD DUP1 DUP4 SUB DUP2 DUP7 GAS STATICCALL ISZERO DUP1 ISZERO PUSH2 0xA59 JUMPI RETURNDATASIZE PUSH0 PUSH0 RETURNDATACOPY RETURNDATASIZE PUSH0 REVERT JUMPDEST POP POP POP POP PUSH1 0x40 MLOAD RETURNDATASIZE PUSH0 DUP3 RETURNDATACOPY RETURNDATASIZE PUSH1 0x1F NOT PUSH1 0x1F DUP3 ADD AND DUP3 ADD DUP1 PUSH1 0x40 MSTORE POP DUP2 ADD SWAP1 PUSH2 0xA81 SWAP2 SWAP1 PUSH2 0x14F9 JUMP JUMPDEST DUP2 PUSH20 0xFFFFFFFFFFFFFFFFFFFFFFFFFFFFFFFFFFFFFFFF AND PUSH4 0x95D89B41 PUSH1 0x40 MLOAD DUP2 PUSH4 0xFFFFFFFF AND PUSH1 0xE0 SHL DUP2 MSTORE PUSH1 0x4 ADD PUSH0 PUSH1 0x40 MLOAD DUP1 DUP4 SUB DUP2 DUP7 GAS STATICCALL ISZERO DUP1 ISZERO PUSH2 0xAC9 JUMPI RETURNDATASIZE PUSH0 PUSH0 RETURNDATACOPY RETURNDATASIZE PUSH0 REVERT JUMPDEST POP POP POP POP PUSH1 0x40 MLOAD RETURNDATASIZE PUSH0 DUP3 RETURNDATACOPY RETURNDATASIZE PUSH1 0x1F NOT PUSH1 0x1F DUP3 ADD AND DUP3 ADD DUP1 PUSH1 0x40 MSTORE POP DUP2 ADD SWAP1 PUSH2 0xAF1 SWAP2 SWAP1 PUSH2 0x14F9 JUMP JUMPDEST DUP3 PUSH20 0xFFFFFFFFFFFFFFFFFFFFFFFFFFFFFFFFFFFFFFFF AND PUSH4 0x70A08231 ADDRESS PUSH1 0x40 MLOAD DUP3 PUSH4 0xFFFFFFFF AND PUSH1 0xE0 SHL DUP2 MSTORE PUSH1 0x4 ADD PUSH2 0xB2A SWAP2 SWAP1 PUSH2 0xE81 JUMP JUMPDEST PUSH1 0x20 PUSH1 0x40 MLOAD DUP1 DUP4 SUB DUP2 DUP7 GAS STATICCALL ISZERO DUP1 ISZERO PUSH2 0xB45 JUMPI RETURNDATASIZE PUSH0 PUSH0 RETURNDATACOPY RETURNDATASIZE PUSH0 REVERT JUMPDEST POP POP POP POP PUSH1 0x40 MLOAD RETURNDATASIZE PUSH1 0x1F NOT PUSH1 0x1F DUP3 ADD AND DUP3 ADD DUP1 PUSH1 0x40 MSTORE POP DUP2 ADD SWAP1 PUSH2 0xB69 SWAP2 SWAP1 PUSH2 0x112A JUMP JUMPDEST DUP4 PUSH20 0xFFFFFFFFFFFFFFFFFFFFFFFFFFFFFFFFFFFFFFFF AND PUSH4 0x18160DDD PUSH1 0x40 MLOAD DUP2 PUSH4 0xFFFFFFFF AND PUSH1 0xE0 SHL DUP2 MSTORE PUSH1 0x4 ADD PUSH1 0x20 PUSH1 0x40 MLOAD DUP1 DUP4 SUB DUP2 DUP7 GAS STATICCALL ISZERO DUP1 ISZERO PUSH2 0xBB2 JUMPI RETURNDATASIZE PUSH0 PUSH0 RETURNDATACOPY RETURNDATASIZE PUSH0 REVERT JUMPDEST POP POP POP POP PUSH1 0x40 MLOAD RETURNDATASIZE PUSH1 0x1F NOT PUSH1 0x1F DUP3 ADD AND DUP3 ADD DUP1 PUSH1 0x40 MSTORE POP DUP2 ADD SWAP1 PUSH2 0xBD6 SWAP2 SWAP1 PUSH2 0x112A JUMP JUMPDEST PUSH1 0x2 SLOAD PUSH1 0x1 PUSH0 SWAP1 SLOAD SWAP1 PUSH2 0x100 EXP SWAP1 DIV PUSH20 0xFFFFFFFFFFFFFFFFFFFFFFFFFFFFFFFFFFFFFFFF AND SWAP7 POP SWAP7 POP SWAP7 POP SWAP7 POP SWAP7 POP SWAP7 POP POP SWAP1 SWAP2 SWAP3 SWAP4 SWAP5 SWAP6 JUMP JUMPDEST PUSH0 PUSH0 SWAP1 SLOAD SWAP1 PUSH2 0x100 EXP SWAP1 DIV PUSH20 0xFFFFFFFFFFFFFFFFFFFFFFFFFFFFFFFFFFFFFFFF AND PUSH20 0xFFFFFFFFFFFFFFFFFFFFFFFFFFFFFFFFFFFFFFFF AND CALLER PUSH20 0xFFFFFFFFFFFFFFFFFFFFFFFFFFFFFFFFFFFFFFFF AND EQ PUSH2 0xC9E JUMPI PUSH1 0x40 MLOAD PUSH32 0x8C379A000000000000000000000000000000000000000000000000000000000 DUP2 MSTORE PUSH1 0x4 ADD PUSH2 0xC95 SWAP1 PUSH2 0x1355 JUMP JUMPDEST PUSH1 0x40 MLOAD DUP1 SWAP2 SUB SWAP1 REVERT JUMPDEST DUP1 PUSH1 0x2 DUP2 SWAP1 SSTORE POP POP JUMP JUMPDEST PUSH0 PUSH0 DUP3 EQ DUP1 PUSH2 0xCCF JUMPI POP DUP3 DUP3 DUP4 DUP6 PUSH2 0xCC0 SWAP2 SWAP1 PUSH2 0x11EA JUMP JUMPDEST SWAP3 POP DUP3 PUSH2 0xCCD SWAP2 SWAP1 PUSH2 0x156D JUMP JUMPDEST EQ JUMPDEST PUSH2 0xCD7 JUMPI PUSH0 PUSH0 REVERT JUMPDEST SWAP3 SWAP2 POP POP JUMP JUMPDEST PUSH0 PUSH1 0x40 MLOAD SWAP1 POP SWAP1 JUMP JUMPDEST PUSH0 PUSH0 REVERT JUMPDEST PUSH0 PUSH0 REVERT JUMPDEST PUSH0 PUSH20 0xFFFFFFFFFFFFFFFFFFFFFFFFFFFFFFFFFFFFFFFF DUP3 AND SWAP1 POP SWAP2 SWAP1 POP JUMP JUMPDEST PUSH0 PUSH2 0xD17 DUP3 PUSH2 0xCEE JUMP JUMPDEST SWAP1 POP SWAP2 SWAP1 POP JUMP JUMPDEST PUSH2 0xD27 DUP2 PUSH2 0xD0D JUMP JUMPDEST DUP2 EQ PUSH2 0xD31 JUMPI PUSH0 PUSH0 REVERT JUMPDEST POP JUMP JUMPDEST PUSH0 DUP2 CALLDATALOAD SWAP1 POP PUSH2 0xD42 DUP2 PUSH2 0xD1E JUMP JUMPDEST SWAP3 SWAP2 POP POP JUMP JUMPDEST PUSH0 DUP2 SWAP1 POP SWAP2 SWAP1 POP JUMP JUMPDEST PUSH2 0xD5A DUP2 PUSH2 0xD48 JUMP JUMPDEST DUP2 EQ PUSH2 0xD64 JUMPI PUSH0 PUSH0 REVERT JUMPDEST POP JUMP JUMPDEST PUSH0 DUP2 CALLDATALOAD SWAP1 POP PUSH2 0xD75 DUP2 PUSH2 0xD51 JUMP JUMPDEST SWAP3 SWAP2 POP POP JUMP JUMPDEST PUSH0 PUSH0 PUSH1 0x40 DUP4 DUP6 SUB SLT ISZERO PUSH2 0xD91 JUMPI PUSH2 0xD90 PUSH2 0xCE6 JUMP JUMPDEST JUMPDEST PUSH0 PUSH2 0xD9E DUP6 DUP3 DUP7 ADD PUSH2 0xD34 JUMP JUMPDEST SWAP3 POP POP PUSH1 0x20 PUSH2 0xDAF DUP6 DUP3 DUP7 ADD PUSH2 0xD67 JUMP JUMPDEST SWAP2 POP POP SWAP3 POP SWAP3 SWAP1 POP JUMP JUMPDEST PUSH0 PUSH1 0x20 DUP3 DUP5 SUB SLT ISZERO PUSH2 0xDCE JUMPI PUSH2 0xDCD PUSH2 0xCE6 JUMP JUMPDEST JUMPDEST PUSH0 PUSH2 0xDDB DUP5 DUP3 DUP6 ADD PUSH2 0xD67 JUMP JUMPDEST SWAP2 POP POP SWAP3 SWAP2 POP POP JUMP JUMPDEST PUSH2 0xDED DUP2 PUSH2 0xD48 JUMP JUMPDEST DUP3 MSTORE POP POP JUMP JUMPDEST PUSH0 PUSH1 0x20 DUP3 ADD SWAP1 POP PUSH2 0xE06 PUSH0 DUP4 ADD DUP5 PUSH2 0xDE4 JUMP JUMPDEST SWAP3 SWAP2 POP POP JUMP JUMPDEST PUSH0 PUSH2 0xE16 DUP3 PUSH2 0xCEE JUMP JUMPDEST SWAP1 POP SWAP2 SWAP1 POP JUMP JUMPDEST PUSH2 0xE26 DUP2 PUSH2 0xE0C JUMP JUMPDEST DUP2 EQ PUSH2 0xE30 JUMPI PUSH0 PUSH0 REVERT JUMPDEST POP JUMP JUMPDEST PUSH0 DUP2 CALLDATALOAD SWAP1 POP PUSH2 0xE41 DUP2 PUSH2 0xE1D JUMP JUMPDEST SWAP3 SWAP2 POP POP JUMP JUMPDEST PUSH0 PUSH1 0x20 DUP3 DUP5 SUB SLT ISZERO PUSH2 0xE5C JUMPI PUSH2 0xE5B PUSH2 0xCE6 JUMP JUMPDEST JUMPDEST PUSH0 PUSH2 0xE69 DUP5 DUP3 DUP6 ADD PUSH2 0xE33 JUMP JUMPDEST SWAP2 POP POP SWAP3 SWAP2 POP POP JUMP JUMPDEST PUSH2 0xE7B DUP2 PUSH2 0xE0C JUMP JUMPDEST DUP3 MSTORE POP POP JUMP JUMPDEST PUSH0 PUSH1 0x20 DUP3 ADD SWAP1 POP PUSH2 0xE94 PUSH0 DUP4 ADD DUP5 PUSH2 0xE72 JUMP JUMPDEST SWAP3 SWAP2 POP POP JUMP JUMPDEST PUSH0 DUP2 MLOAD SWAP1 POP SWAP2 SWAP1 POP JUMP JUMPDEST PUSH0 DUP3 DUP3 MSTORE PUSH1 0x20 DUP3 ADD SWAP1 POP SWAP3 SWAP2 POP POP JUMP JUMPDEST DUP3 DUP2 DUP4 MCOPY PUSH0 DUP4 DUP4 ADD MSTORE POP POP POP JUMP JUMPDEST PUSH0 PUSH1 0x1F NOT PUSH1 0x1F DUP4 ADD AND SWAP1 POP SWAP2 SWAP1 POP JUMP JUMPDEST PUSH0 PUSH2 0xEDC DUP3 PUSH2 0xE9A JUMP JUMPDEST PUSH2 0xEE6 DUP2 DUP6 PUSH2 0xEA4 JUMP JUMPDEST SWAP4 POP PUSH2 0xEF6 DUP2 DUP6 PUSH1 0x20 DUP7 ADD PUSH2 0xEB4 JUMP JUMPDEST PUSH2 0xEFF DUP2 PUSH2 0xEC2 JUMP JUMPDEST DUP5 ADD SWAP2 POP POP SWAP3 SWAP2 POP POP JUMP JUMPDEST PUSH0 PUSH1 0xC0 DUP3 ADD SWAP1 POP DUP2 DUP2 SUB PUSH0 DUP4 ADD MSTORE PUSH2 0xF22 DUP2 DUP10 PUSH2 0xED2 JUMP JUMPDEST SWAP1 POP DUP2 DUP2 SUB PUSH1 0x20 DUP4 ADD MSTORE PUSH2 0xF36 DUP2 DUP9 PUSH2 0xED2 JUMP JUMPDEST SWAP1 POP PUSH2 0xF45 PUSH1 0x40 DUP4 ADD DUP8 PUSH2 0xDE4 JUMP JUMPDEST PUSH2 0xF52 PUSH1 0x60 DUP4 ADD DUP7 PUSH2 0xDE4 JUMP JUMPDEST PUSH2 0xF5F PUSH1 0x80 DUP4 ADD DUP6 PUSH2 0xDE4 JUMP JUMPDEST PUSH2 0xF6C PUSH1 0xA0 DUP4 ADD DUP5 PUSH2 0xE72 JUMP JUMPDEST SWAP8 SWAP7 POP POP POP POP POP POP POP JUMP JUMPDEST PUSH32 0x496E73756666696369656E742066756E64732073656E74000000000000000000 PUSH0 DUP3 ADD MSTORE POP JUMP JUMPDEST PUSH0 PUSH2 0xFAB PUSH1 0x17 DUP4 PUSH2 0xEA4 JUMP JUMPDEST SWAP2 POP PUSH2 0xFB6 DUP3 PUSH2 0xF77 JUMP JUMPDEST PUSH1 0x20 DUP3 ADD SWAP1 POP SWAP2 SWAP1 POP JUMP JUMPDEST PUSH0 PUSH1 0x20 DUP3 ADD SWAP1 POP DUP2 DUP2 SUB PUSH0 DUP4 ADD MSTORE PUSH2 0xFD8 DUP2 PUSH2 0xF9F JUMP JUMPDEST SWAP1 POP SWAP2 SWAP1 POP JUMP JUMPDEST PUSH0 DUP2 SWAP1 POP SWAP3 SWAP2 POP POP JUMP JUMPDEST POP JUMP JUMPDEST PUSH0 PUSH2 0xFF7 PUSH0 DUP4 PUSH2 0xFDF JUMP JUMPDEST SWAP2 POP PUSH2 0x1002 DUP3 PUSH2 0xFE9 JUMP JUMPDEST PUSH0 DUP3 ADD SWAP1 POP SWAP2 SWAP1 POP JUMP JUMPDEST PUSH0 PUSH2 0x1016 DUP3 PUSH2 0xFEC JUMP JUMPDEST SWAP2 POP DUP2 SWAP1 POP SWAP2 SWAP1 POP JUMP JUMPDEST PUSH32 0x5472616E73666572206661696C65640000000000000000000000000000000000 PUSH0 DUP3 ADD MSTORE POP JUMP JUMPDEST PUSH0 PUSH2 0x1054 PUSH1 0xF DUP4 PUSH2 0xEA4 JUMP JUMPDEST SWAP2 POP PUSH2 0x105F DUP3 PUSH2 0x1020 JUMP JUMPDEST PUSH1 0x20 DUP3 ADD SWAP1 POP SWAP2 SWAP1 POP JUMP JUMPDEST PUSH0 PUSH1 0x20 DUP3 ADD SWAP1 POP DUP2 DUP2 SUB PUSH0 DUP4 ADD MSTORE PUSH2 0x1081 DUP2 PUSH2 0x1048 JUMP JUMPDEST SWAP1 POP SWAP2 SWAP1 POP JUMP JUMPDEST PUSH32 0x45746865722070726F766964657220666F722074686520746F6B656E20707572 PUSH0 DUP3 ADD MSTORE PUSH32 0x6368617365000000000000000000000000000000000000000000000000000000 PUSH1 0x20 DUP3 ADD MSTORE POP JUMP JUMPDEST PUSH0 PUSH2 0x10E2 PUSH1 0x25 DUP4 PUSH2 0xEA4 JUMP JUMPDEST SWAP2 POP PUSH2 0x10ED DUP3 PUSH2 0x1088 JUMP JUMPDEST PUSH1 0x40 DUP3 ADD SWAP1 POP SWAP2 SWAP1 POP JUMP JUMPDEST PUSH0 PUSH1 0x20 DUP3 ADD SWAP1 POP DUP2 DUP2 SUB PUSH0 DUP4 ADD MSTORE PUSH2 0x110F DUP2 PUSH2 0x10D6 JUMP JUMPDEST SWAP1 POP SWAP2 SWAP1 POP JUMP JUMPDEST PUSH0 DUP2 MLOAD SWAP1 POP PUSH2 0x1124 DUP2 PUSH2 0xD51 JUMP JUMPDEST SWAP3 SWAP2 POP POP JUMP JUMPDEST PUSH0 PUSH1 0x20 DUP3 DUP5 SUB SLT ISZERO PUSH2 0x113F JUMPI PUSH2 0x113E PUSH2 0xCE6 JUMP JUMPDEST JUMPDEST PUSH0 PUSH2 0x114C DUP5 DUP3 DUP6 ADD PUSH2 0x1116 JUMP JUMPDEST SWAP2 POP POP SWAP3 SWAP2 POP POP JUMP JUMPDEST PUSH32 0x4E6F7420656E6F75676820746F6B656E206C65667420666F722073616C650000 PUSH0 DUP3 ADD MSTORE POP JUMP JUMPDEST PUSH0 PUSH2 0x1189 PUSH1 0x1E DUP4 PUSH2 0xEA4 JUMP JUMPDEST SWAP2 POP PUSH2 0x1194 DUP3 PUSH2 0x1155 JUMP JUMPDEST PUSH1 0x20 DUP3 ADD SWAP1 POP SWAP2 SWAP1 POP JUMP JUMPDEST PUSH0 PUSH1 0x20 DUP3 ADD SWAP1 POP DUP2 DUP2 SUB PUSH0 DUP4 ADD MSTORE PUSH2 0x11B6 DUP2 PUSH2 0x117D JUMP JUMPDEST SWAP1 POP SWAP2 SWAP1 POP JUMP JUMPDEST PUSH32 0x4E487B7100000000000000000000000000000000000000000000000000000000 PUSH0 MSTORE PUSH1 0x11 PUSH1 0x4 MSTORE PUSH1 0x24 PUSH0 REVERT JUMPDEST PUSH0 PUSH2 0x11F4 DUP3 PUSH2 0xD48 JUMP JUMPDEST SWAP2 POP PUSH2 0x11FF DUP4 PUSH2 0xD48 JUMP JUMPDEST SWAP3 POP DUP3 DUP3 MUL PUSH2 0x120D DUP2 PUSH2 0xD48 JUMP JUMPDEST SWAP2 POP DUP3 DUP3 DIV DUP5 EQ DUP4 ISZERO OR PUSH2 0x1224 JUMPI PUSH2 0x1223 PUSH2 0x11BD JUMP JUMPDEST JUMPDEST POP SWAP3 SWAP2 POP POP JUMP JUMPDEST PUSH0 PUSH1 0x40 DUP3 ADD SWAP1 POP PUSH2 0x123E PUSH0 DUP4 ADD DUP6 PUSH2 0xE72 JUMP JUMPDEST PUSH2 0x124B PUSH1 0x20 DUP4 ADD DUP5 PUSH2 0xDE4 JUMP JUMPDEST SWAP4 SWAP3 POP POP POP JUMP JUMPDEST PUSH0 DUP2 ISZERO ISZERO SWAP1 POP SWAP2 SWAP1 POP JUMP JUMPDEST PUSH2 0x1266 DUP2 PUSH2 0x1252 JUMP JUMPDEST DUP2 EQ PUSH2 0x1270 JUMPI PUSH0 PUSH0 REVERT JUMPDEST POP JUMP JUMPDEST PUSH0 DUP2 MLOAD SWAP1 POP PUSH2 0x1281 DUP2 PUSH2 0x125D JUMP JUMPDEST SWAP3 SWAP2 POP POP JUMP JUMPDEST PUSH0 PUSH1 0x20 DUP3 DUP5 SUB SLT ISZERO PUSH2 0x129C JUMPI PUSH2 0x129B PUSH2 0xCE6 JUMP JUMPDEST JUMPDEST PUSH0 PUSH2 0x12A9 DUP5 DUP3 DUP6 ADD PUSH2 0x1273 JUMP JUMPDEST SWAP2 POP POP SWAP3 SWAP2 POP POP JUMP JUMPDEST PUSH0 PUSH2 0x12BC DUP3 PUSH2 0xD48 JUMP JUMPDEST SWAP2 POP PUSH2 0x12C7 DUP4 PUSH2 0xD48 JUMP JUMPDEST SWAP3 POP DUP3 DUP3 ADD SWAP1 POP DUP1 DUP3 GT ISZERO PUSH2 0x12DF JUMPI PUSH2 0x12DE PUSH2 0x11BD JUMP JUMPDEST JUMPDEST SWAP3 SWAP2 POP POP JUMP JUMPDEST PUSH32 0x4F6E6C7920636F6E7472616374206F776E65722063616E20706572666F726D20 PUSH0 DUP3 ADD MSTORE PUSH32 0x7468697320616374696F6E000000000000000000000000000000000000000000 PUSH1 0x20 DUP3 ADD MSTORE POP JUMP JUMPDEST PUSH0 PUSH2 0x133F PUSH1 0x2B DUP4 PUSH2 0xEA4 JUMP JUMPDEST SWAP2 POP PUSH2 0x134A DUP3 PUSH2 0x12E5 JUMP JUMPDEST PUSH1 0x40 DUP3 ADD SWAP1 POP SWAP2 SWAP1 POP JUMP JUMPDEST PUSH0 PUSH1 0x20 DUP3 ADD SWAP1 POP DUP2 DUP2 SUB PUSH0 DUP4 ADD MSTORE PUSH2 0x136C DUP2 PUSH2 0x1333 JUMP JUMPDEST SWAP1 POP SWAP2 SWAP1 POP JUMP JUMPDEST PUSH32 0x4E6F20746F6B656E7320746F2077697468647261770000000000000000000000 PUSH0 DUP3 ADD MSTORE POP JUMP JUMPDEST PUSH0 PUSH2 0x13A7 PUSH1 0x15 DUP4 PUSH2 0xEA4 JUMP JUMPDEST SWAP2 POP PUSH2 0x13B2 DUP3 PUSH2 0x1373 JUMP JUMPDEST PUSH1 0x20 DUP3 ADD SWAP1 POP SWAP2 SWAP1 POP JUMP JUMPDEST PUSH0 PUSH1 0x20 DUP3 ADD SWAP1 POP DUP2 DUP2 SUB PUSH0 DUP4 ADD MSTORE PUSH2 0x13D4 DUP2 PUSH2 0x139B JUMP JUMPDEST SWAP1 POP SWAP2 SWAP1 POP JUMP JUMPDEST PUSH0 PUSH0 REVERT JUMPDEST PUSH0 PUSH0 REVERT JUMPDEST PUSH32 0x4E487B7100000000000000000000000000000000000000000000000000000000 PUSH0 MSTORE PUSH1 0x41 PUSH1 0x4 MSTORE PUSH1 0x24 PUSH0 REVERT JUMPDEST PUSH2 0x1419 DUP3 PUSH2 0xEC2 JUMP JUMPDEST DUP2 ADD DUP2 DUP2 LT PUSH8 0xFFFFFFFFFFFFFFFF DUP3 GT OR ISZERO PUSH2 0x1438 JUMPI PUSH2 0x1437 PUSH2 0x13E3 JUMP JUMPDEST JUMPDEST DUP1 PUSH1 0x40 MSTORE POP POP POP JUMP JUMPDEST PUSH0 PUSH2 0x144A PUSH2 0xCDD JUMP JUMPDEST SWAP1 POP PUSH2 0x1456 DUP3 DUP3 PUSH2 0x1410 JUMP JUMPDEST SWAP2 SWAP1 POP JUMP JUMPDEST PUSH0 PUSH8 0xFFFFFFFFFFFFFFFF DUP3 GT ISZERO PUSH2 0x1475 JUMPI PUSH2 0x1474 PUSH2 0x13E3 JUMP JUMPDEST JUMPDEST PUSH2 0x147E DUP3 PUSH2 0xEC2 JUMP JUMPDEST SWAP1 POP PUSH1 0x20 DUP2 ADD SWAP1 POP SWAP2 SWAP1 POP JUMP JUMPDEST PUSH0 PUSH2 0x149D PUSH2 0x1498 DUP5 PUSH2 0x145B JUMP JUMPDEST PUSH2 0x1441 JUMP JUMPDEST SWAP1 POP DUP3 DUP2 MSTORE PUSH1 0x20 DUP2 ADD DUP5 DUP5 DUP5 ADD GT ISZERO PUSH2 0x14B9 JUMPI PUSH2 0x14B8 PUSH2 0x13DF JUMP JUMPDEST JUMPDEST PUSH2 0x14C4 DUP5 DUP3 DUP6 PUSH2 0xEB4 JUMP JUMPDEST POP SWAP4 SWAP3 POP POP POP JUMP JUMPDEST PUSH0 DUP3 PUSH1 0x1F DUP4 ADD SLT PUSH2 0x14E0 JUMPI PUSH2 0x14DF PUSH2 0x13DB JUMP JUMPDEST JUMPDEST DUP2 MLOAD PUSH2 0x14F0 DUP5 DUP3 PUSH1 0x20 DUP7 ADD PUSH2 0x148B JUMP JUMPDEST SWAP2 POP POP SWAP3 SWAP2 POP POP JUMP JUMPDEST PUSH0 PUSH1 0x20 DUP3 DUP5 SUB SLT ISZERO PUSH2 0x150E JUMPI PUSH2 0x150D PUSH2 0xCE6 JUMP JUMPDEST JUMPDEST PUSH0 DUP3 ADD MLOAD PUSH8 0xFFFFFFFFFFFFFFFF DUP2 GT ISZERO PUSH2 0x152B JUMPI PUSH2 0x152A PUSH2 0xCEA JUMP JUMPDEST JUMPDEST PUSH2 0x1537 DUP5 DUP3 DUP6 ADD PUSH2 0x14CC JUMP JUMPDEST SWAP2 POP POP SWAP3 SWAP2 POP POP JUMP JUMPDEST PUSH32 0x4E487B7100000000000000000000000000000000000000000000000000000000 PUSH0 MSTORE PUSH1 0x12 PUSH1 0x4 MSTORE PUSH1 0x24 PUSH0 REVERT JUMPDEST PUSH0 PUSH2 0x1577 DUP3 PUSH2 0xD48 JUMP JUMPDEST SWAP2 POP PUSH2 0x1582 DUP4 PUSH2 0xD48 JUMP JUMPDEST SWAP3 POP DUP3 PUSH2 0x1592 JUMPI PUSH2 0x1591 PUSH2 0x1540 JUMP JUMPDEST JUMPDEST DUP3 DUP3 DIV SWAP1 POP SWAP3 SWAP2 POP POP JUMP INVALID LOG2 PUSH5 0x6970667358 0x22 SLT KECCAK256 GASPRICE PUSH28 0xB520787B96A3D8EB3714373AE170BB4EF6B6B45DD99DE8FABD62BFEA SWAP4 PUSH26 0x64736F6C634300081C0033000000000000000000000000000000 "
		},
		"gasEstimates": {
			"creation": {
				"codeDepositCost": "1117400",
				"executionCost": "25422",
				"totalCost": "1142822"
			},
			"external": {
				"buyToken(uint256)": "infinite",
				"getTokenDetails()": "infinite",
				"owner()": "2507",
				"soldTokens()": "2470",
				"tokenAddress()": "2552",
				"tokenSalePrice()": "2491",
				"transferEther(address,uint256)": "infinite",
				"transferToOwner(uint256)": "infinite",
				"updateToken(address)": "26950",
				"updateTokenSalePrice(uint256)": "24793",
				"widthdrawAllTokens()": "infinite"
			},
			"internal": {
				"multiply(uint256,uint256)": "infinite"
			}
		},
		"methodIdentifiers": {
			"buyToken(uint256)": "2d296bf1",
			"getTokenDetails()": "ff332ab7",
			"owner()": "8da5cb5b",
			"soldTokens()": "5ed9ebfc",
			"tokenAddress()": "9d76ea58",
			"tokenSalePrice()": "e86790eb",
			"transferEther(address,uint256)": "05b1137b",
			"transferToOwner(uint256)": "87c1ed12",
			"updateToken(address)": "7ad3def2",
			"updateTokenSalePrice(uint256)": "ffdeb903",
			"widthdrawAllTokens()": "90d1341e"
		}
	},
	"abi": [
		{
			"inputs": [],
			"stateMutability": "nonpayable",
			"type": "constructor"
		},
		{
			"inputs": [
				{
					"internalType": "uint256",
					"name": "_tokenAmount",
					"type": "uint256"
				}
			],
			"name": "buyToken",
			"outputs": [],
			"stateMutability": "payable",
			"type": "function"
		},
		{
			"inputs": [],
			"name": "getTokenDetails",
			"outputs": [
				{
					"internalType": "string",
					"name": "name",
					"type": "string"
				},
				{
					"internalType": "string",
					"name": "symbol",
					"type": "string"
				},
				{
					"internalType": "uint256",
					"name": "balance",
					"type": "uint256"
				},
				{
					"internalType": "uint256",
					"name": "supply",
					"type": "uint256"
				},
				{
					"internalType": "uint256",
					"name": "tokenPrice",
					"type": "uint256"
				},
				{
					"internalType": "address",
					"name": "tokenAddr",
					"type": "address"
				}
			],
			"stateMutability": "view",
			"type": "function"
		},
		{
			"inputs": [],
			"name": "owner",
			"outputs": [
				{
					"internalType": "address",
					"name": "",
					"type": "address"
				}
			],
			"stateMutability": "view",
			"type": "function"
		},
		{
			"inputs": [],
			"name": "soldTokens",
			"outputs": [
				{
					"internalType": "uint256",
					"name": "",
					"type": "uint256"
				}
			],
			"stateMutability": "view",
			"type": "function"
		},
		{
			"inputs": [],
			"name": "tokenAddress",
			"outputs": [
				{
					"internalType": "address",
					"name": "",
					"type": "address"
				}
			],
			"stateMutability": "view",
			"type": "function"
		},
		{
			"inputs": [],
			"name": "tokenSalePrice",
			"outputs": [
				{
					"internalType": "uint256",
					"name": "",
					"type": "uint256"
				}
			],
			"stateMutability": "view",
			"type": "function"
		},
		{
			"inputs": [
				{
					"internalType": "address payable",
					"name": "_receiver",
					"type": "address"
				},
				{
					"internalType": "uint256",
					"name": "_amount",
					"type": "uint256"
				}
			],
			"name": "transferEther",
			"outputs": [],
			"stateMutability": "payable",
			"type": "function"
		},
		{
			"inputs": [
				{
					"internalType": "uint256",
					"name": "_amount",
					"type": "uint256"
				}
			],
			"name": "transferToOwner",
			"outputs": [],
			"stateMutability": "payable",
			"type": "function"
		},
		{
			"inputs": [
				{
					"internalType": "address",
					"name": "_tokenAddress",
					"type": "address"
				}
			],
			"name": "updateToken",
			"outputs": [],
			"stateMutability": "nonpayable",
			"type": "function"
		},
		{
			"inputs": [
				{
					"internalType": "uint256",
					"name": "_tokenSalePrice",
					"type": "uint256"
				}
			],
			"name": "updateTokenSalePrice",
			"outputs": [],
			"stateMutability": "nonpayable",
			"type": "function"
		},
		{
			"inputs": [],
			"name": "widthdrawAllTokens",
			"outputs": [],
			"stateMutability": "nonpayable",
			"type": "function"
		}
	]
}